{
  "address": "0x6Ba1eb44B96e0F5e22a43611D9F65110a394247D",
  "abi": [
    {
      "inputs": [
        {
          "internalType": "address",
          "name": "_stargateRouter",
          "type": "address"
        },
        {
          "internalType": "address",
          "name": "_stargateRouterETH",
          "type": "address"
        },
        {
          "internalType": "address",
          "name": "_stargateFactory",
          "type": "address"
        }
      ],
      "stateMutability": "nonpayable",
      "type": "constructor"
    },
    {
      "anonymous": false,
      "inputs": [
        {
          "indexed": true,
          "internalType": "bytes2",
          "name": "partnerId",
          "type": "bytes2"
        }
      ],
      "name": "PartnerSwap",
      "type": "event"
    },
    {
      "anonymous": false,
      "inputs": [
        {
          "indexed": true,
          "internalType": "bytes2",
          "name": "partnerId",
          "type": "bytes2"
        },
        {
          "indexed": false,
          "internalType": "uint256",
          "name": "tenthBps",
          "type": "uint256"
        },
        {
          "indexed": false,
          "internalType": "uint256",
          "name": "widgetFee",
          "type": "uint256"
        }
      ],
      "name": "WidgetSwapped",
      "type": "event"
    },
    {
      "inputs": [],
      "name": "MAX_UINT",
      "outputs": [
        {
          "internalType": "uint256",
          "name": "",
          "type": "uint256"
        }
      ],
      "stateMutability": "view",
      "type": "function"
    },
    {
      "inputs": [],
      "name": "TENTH_BPS_DENOMINATOR",
      "outputs": [
        {
          "internalType": "uint256",
          "name": "",
          "type": "uint256"
        }
      ],
      "stateMutability": "view",
      "type": "function"
    },
    {
      "inputs": [
        {
          "internalType": "bytes2",
          "name": "_partnerId",
          "type": "bytes2"
        }
      ],
      "name": "partnerSwap",
      "outputs": [],
      "stateMutability": "nonpayable",
      "type": "function"
    },
    {
      "inputs": [],
      "name": "stargateFactory",
      "outputs": [
        {
          "internalType": "contract IStargateFactory",
          "name": "",
          "type": "address"
        }
      ],
      "stateMutability": "view",
      "type": "function"
    },
    {
      "inputs": [],
      "name": "stargateRouter",
      "outputs": [
        {
          "internalType": "contract IStargateRouter",
          "name": "",
          "type": "address"
        }
      ],
      "stateMutability": "view",
      "type": "function"
    },
    {
      "inputs": [],
      "name": "stargateRouterETH",
      "outputs": [
        {
          "internalType": "contract IStargateRouterETH",
          "name": "",
          "type": "address"
        }
      ],
      "stateMutability": "view",
      "type": "function"
    },
    {
      "inputs": [
        {
          "internalType": "uint16",
          "name": "_dstChainId",
          "type": "uint16"
        },
        {
          "internalType": "uint256",
          "name": "_amountLD",
          "type": "uint256"
        },
        {
          "internalType": "uint256",
          "name": "_minAmountLD",
          "type": "uint256"
        },
        {
          "internalType": "bytes",
          "name": "_to",
          "type": "bytes"
        },
        {
          "internalType": "bytes2",
          "name": "_partnerId",
          "type": "bytes2"
        },
        {
          "components": [
            {
              "internalType": "uint256",
              "name": "tenthBps",
              "type": "uint256"
            },
            {
              "internalType": "address",
              "name": "feeCollector",
              "type": "address"
            }
          ],
          "internalType": "struct IStargateWidget.FeeObj",
          "name": "_feeObj",
          "type": "tuple"
        }
      ],
      "name": "swapETH",
      "outputs": [],
      "stateMutability": "payable",
      "type": "function"
    },
    {
      "inputs": [
        {
          "internalType": "uint16",
          "name": "_dstChainId",
          "type": "uint16"
        },
        {
          "internalType": "uint16",
          "name": "_srcPoolId",
          "type": "uint16"
        },
        {
          "internalType": "uint16",
          "name": "_dstPoolId",
          "type": "uint16"
        },
        {
          "internalType": "uint256",
          "name": "_amountLD",
          "type": "uint256"
        },
        {
          "internalType": "uint256",
          "name": "_minAmountLD",
          "type": "uint256"
        },
        {
          "components": [
            {
              "internalType": "uint256",
              "name": "dstGasForCall",
              "type": "uint256"
            },
            {
              "internalType": "uint256",
              "name": "dstNativeAmount",
              "type": "uint256"
            },
            {
              "internalType": "bytes",
              "name": "dstNativeAddr",
              "type": "bytes"
            }
          ],
          "internalType": "struct IStargateRouter.lzTxObj",
          "name": "_lzTxParams",
          "type": "tuple"
        },
        {
          "internalType": "bytes",
          "name": "_to",
          "type": "bytes"
        },
        {
          "internalType": "bytes2",
          "name": "_partnerId",
          "type": "bytes2"
        },
        {
          "components": [
            {
              "internalType": "uint256",
              "name": "tenthBps",
              "type": "uint256"
            },
            {
              "internalType": "address",
              "name": "feeCollector",
              "type": "address"
            }
          ],
          "internalType": "struct IStargateWidget.FeeObj",
          "name": "_feeObj",
          "type": "tuple"
        }
      ],
      "name": "swapTokens",
      "outputs": [],
      "stateMutability": "payable",
      "type": "function"
    },
    {
      "inputs": [
        {
          "internalType": "address",
          "name": "",
          "type": "address"
        }
      ],
      "name": "tokenApproved",
      "outputs": [
        {
          "internalType": "bool",
          "name": "",
          "type": "bool"
        }
      ],
      "stateMutability": "view",
      "type": "function"
    }
  ],
  "transactionHash": "0x906b240cae534076ddb0e6781a4dddb0ae5658c9f95e6772a725425bd6d91134",
  "args": [
    "0x2F6F07CDcf3588944Bf4C42aC74ff24bF56e7590",
    "0x8731d54E9D02c286767d56ac03e8037C07e01e98",
    "0xAF54BE5B6eEc24d6BFACf1cce4eaF680A8239398"
  ],
  "numDeployments": 1,
  "solcInputHash": "0c462b8e33b6257eabe1c64065f9bcbd",
  "bytecode": "0x60e060405234801561001057600080fd5b5060405161130738038061130783398101604081905261002f91610077565b60016000556001600160601b0319606093841b811660805291831b821660a05290911b1660c0526100b9565b80516001600160a01b038116811461007257600080fd5b919050565b60008060006060848603121561008b578283fd5b6100948461005b565b92506100a26020850161005b565b91506100b06040850161005b565b90509250925092565b60805160601c60a05160601c60c05160601c6111f46101136000396000818160f701526105550152600081816101430152818161032001526103b10152600081816101aa0152818161022001526106e501526111f46000f3fe6080604052600436106100865760003560e01c8063919d763711610059578063919d763714610165578063a87376e914610178578063a9e56f3c14610198578063beaeb55a146101cc578063e5b5019a146101f157600080fd5b8063170e2b8a1461008b5780632d62fc1a146100d057806330e7a49b146100e55780638e0f64d314610131575b600080fd5b34801561009757600080fd5b506100bb6100a6366004610d78565b60016020526000908152604090205460ff1681565b60405190151581526020015b60405180910390f35b6100e36100de366004610df1565b610207565b005b3480156100f157600080fd5b506101197f000000000000000000000000000000000000000000000000000000000000000081565b6040516001600160a01b0390911681526020016100c7565b34801561013d57600080fd5b506101197f000000000000000000000000000000000000000000000000000000000000000081565b6100e3610173366004610ec8565b610316565b34801561018457600080fd5b506100e3610193366004610dd7565b61049d565b3480156101a457600080fd5b506101197f000000000000000000000000000000000000000000000000000000000000000081565b3480156101d857600080fd5b506101e3620186a081565b6040519081526020016100c7565b3480156101fd57600080fd5b506101e360001981565b61020f6104d5565b600061021c8a898461052f565b90507f00000000000000000000000000000000000000000000000000000000000000006001600160a01b0316639fbf10fc348d8d8d33878f61025e919061114d565b8e8e8e8e6040518b63ffffffff1660e01b815260040161028699989796959493929190611024565b6000604051808303818588803b15801561029f57600080fd5b505af11580156102b3573d6000803e3d6000fd5b50506040805186358152602081018690526001600160f01b0319881694507fe005092a469280dafcad91e38921cc6f96eac91d73413489fd8719634163345e935001905060405180910390a25061030a6001600055565b50505050505050505050565b61031e6104d5565b7f00000000000000000000000000000000000000000000000000000000000000006001600160a01b03166103995760405162461bcd60e51b815260206004820152601e60248201527f576964676574537761703a2066756e63206e6f7420617661696c61626c65000060448201526064015b60405180910390fd5b60006103a58783610714565b90506001600160a01b037f000000000000000000000000000000000000000000000000000000000000000016631114cd2a6103e0833461114d565b8a3389896103ee888f61114d565b8d6040518863ffffffff1660e01b815260040161041096959493929190610fe0565b6000604051808303818588803b15801561042957600080fd5b505af115801561043d573d6000803e3d6000fd5b50506040805186358152602081018690526001600160f01b0319881694507fe005092a469280dafcad91e38921cc6f96eac91d73413489fd8719634163345e935001905060405180910390a2506104946001600055565b50505050505050565b6040516001600160f01b03198216907f85ce809fd9fd62b920fadc9d3a3a8e642d3969bf635276bfbdde866acce409fc90600090a250565b600260005414156105285760405162461bcd60e51b815260206004820152601f60248201527f5265656e7472616e637947756172643a207265656e7472616e742063616c6c006044820152606401610390565b6002600055565b60405163068bcd8d60e01b815261ffff8416600482015260009081906001600160a01b037f0000000000000000000000000000000000000000000000000000000000000000169063068bcd8d90602401602060405180830381600087803b15801561059957600080fd5b505af11580156105ad573d6000803e3d6000fd5b505050506040513d601f19601f820116820180604052508101906105d19190610d9b565b6001600160a01b031663fc0c546a6040518163ffffffff1660e01b8152600401602060405180830381600087803b15801561060b57600080fd5b505af115801561061f573d6000803e3d6000fd5b505050506040513d601f19601f820116820180604052508101906106439190610d9b565b905061065a6001600160a01b0382163330876108bf565b620186a061066984358661112e565b610673919061110e565b91506106996106886040850160208601610d78565b6001600160a01b0383169084610930565b6001600160a01b03811660009081526001602052604090205460ff1661070c576001600160a01b0381166000818152600160208190526040909120805460ff1916909117905561070c907f0000000000000000000000000000000000000000000000000000000000000000600019610965565b509392505050565b6000620186a061072583358561112e565b61072f919061110e565b90508034116107915760405162461bcd60e51b815260206004820152602860248201527f576964676574537761703a206e6f7420656e6f7567682065746820666f722077604482015267696467657446656560c01b6064820152608401610390565b8261079c823461114d565b116107f55760405162461bcd60e51b815260206004820152602360248201527f576964676574537761703a206e6f7420656e6f7567682065746820666f72207360448201526207761760ec1b6064820152608401610390565b60006108076040840160208501610d78565b6001600160a01b03168260405160006040518083038185875af1925050503d8060008114610851576040519150601f19603f3d011682016040523d82523d6000602084013e610856565b606091505b50509050806108b85760405162461bcd60e51b815260206004820152602860248201527f576964676574537761703a206661696c656420746f207472616e736665722077604482015267696467657446656560c01b6064820152608401610390565b5092915050565b6040516001600160a01b038085166024830152831660448201526064810182905261092a9085906323b872dd60e01b906084015b60408051601f198184030181529190526020810180516001600160e01b03166001600160e01b031990931692909217909152610a89565b50505050565b6040516001600160a01b03831660248201526044810182905261096090849063a9059cbb60e01b906064016108f3565b505050565b8015806109ee5750604051636eb1769f60e11b81523060048201526001600160a01b03838116602483015284169063dd62ed3e9060440160206040518083038186803b1580156109b457600080fd5b505afa1580156109c8573d6000803e3d6000fd5b505050506040513d601f19601f820116820180604052508101906109ec9190610f50565b155b610a595760405162461bcd60e51b815260206004820152603660248201527f5361666545524332303a20617070726f76652066726f6d206e6f6e2d7a65726f60448201527520746f206e6f6e2d7a65726f20616c6c6f77616e636560501b6064820152608401610390565b6040516001600160a01b03831660248201526044810182905261096090849063095ea7b360e01b906064016108f3565b6000610ade826040518060400160405280602081526020017f5361666545524332303a206c6f772d6c6576656c2063616c6c206661696c6564815250856001600160a01b0316610b5e9092919063ffffffff16565b9050805160001480610aff575080806020019051810190610aff9190610db7565b6109605760405162461bcd60e51b815260206004820152602a60248201527f5361666545524332303a204552433230206f7065726174696f6e20646964206e6044820152691bdd081cdd58d8d9595960b21b6064820152608401610390565b6060610b6d8484600085610b75565b949350505050565b606082471015610bd65760405162461bcd60e51b815260206004820152602660248201527f416464726573733a20696e73756666696369656e742062616c616e636520666f6044820152651c8818d85b1b60d21b6064820152608401610390565b600080866001600160a01b03168587604051610bf29190610f91565b60006040518083038185875af1925050503d8060008114610c2f576040519150601f19603f3d011682016040523d82523d6000602084013e610c34565b606091505b5091509150610c4587838387610c50565b979650505050505050565b60608315610cbc578251610cb5576001600160a01b0385163b610cb55760405162461bcd60e51b815260206004820152601d60248201527f416464726573733a2063616c6c20746f206e6f6e2d636f6e74726163740000006044820152606401610390565b5081610b6d565b610b6d8383815115610cd15781518083602001fd5b8060405162461bcd60e51b81526004016103909190610fad565b80356001600160f01b031981168114610d0357600080fd5b919050565b60008083601f840112610d19578182fd5b50813567ffffffffffffffff811115610d30578182fd5b602083019150836020828501011115610d4857600080fd5b9250929050565b600060408284031215610d60578081fd5b50919050565b803561ffff81168114610d0357600080fd5b600060208284031215610d89578081fd5b8135610d94816111a6565b9392505050565b600060208284031215610dac578081fd5b8151610d94816111a6565b600060208284031215610dc8578081fd5b81518015158114610d94578182fd5b600060208284031215610de8578081fd5b610d9482610ceb565b6000806000806000806000806000806101408b8d031215610e10578586fd5b610e198b610d66565b9950610e2760208c01610d66565b9850610e3560408c01610d66565b975060608b0135965060808b0135955060a08b013567ffffffffffffffff80821115610e5f578687fd5b908c01906060828f031215610e72578687fd5b90955060c08c01359080821115610e87578586fd5b50610e948d828e01610d08565b9095509350610ea7905060e08c01610ceb565b9150610eb78c6101008d01610d4f565b90509295989b9194979a5092959850565b600080600080600080600060e0888a031215610ee2578283fd5b610eeb88610d66565b96506020880135955060408801359450606088013567ffffffffffffffff811115610f14578384fd5b610f208a828b01610d08565b9095509350610f33905060808901610ceb565b9150610f428960a08a01610d4f565b905092959891949750929550565b600060208284031215610f61578081fd5b5051919050565b81835281816020850137506000828201602090810191909152601f909101601f19169091010190565b60008251610fa3818460208701611164565b9190910192915050565b6020815260008251806020840152610fcc816040850160208701611164565b601f01601f19169190910160400192915050565b61ffff871681526001600160a01b038616602082015260a06040820181905260009061100f9083018688610f68565b60608301949094525060800152949350505050565b600061012061ffff808d168452808c166020850152808b1660408501525060018060a01b03891660608401528760808401528660a08401528060c08401528535818401525060208501356101408301526040850135601e1986360301811261108a578182fd5b8501803567ffffffffffffffff8111156110a2578283fd5b8036038713156110b0578283fd5b60606101608501526110ca61018085018260208501610f68565b91505082810360e08401526110e0818587610f68565b8381036101008501526002815261060f60f31b60208201529050604081019c9b505050505050505050505050565b60008261112957634e487b7160e01b81526012600452602481fd5b500490565b600081600019048311821515161561114857611148611190565b500290565b60008282101561115f5761115f611190565b500390565b60005b8381101561117f578181015183820152602001611167565b8381111561092a5750506000910152565b634e487b7160e01b600052601160045260246000fd5b6001600160a01b03811681146111bb57600080fd5b5056fea2646970667358221220d4ed8c9505deb9841c4760f2f47a392833ba7695f0184806e43ca55ae1b5f6ac64736f6c63430008040033",
  "devdoc": {
    "kind": "dev",
    "methods": {},
    "version": 1
  },
  "userdoc": {
    "kind": "user",
    "methods": {},
    "version": 1
  },
  "storageLayout": {
    "storage": [
      {
        "astId": 10,
        "contract": "contracts/stargate/WidgetSwap.sol:WidgetSwap",
        "label": "_status",
        "offset": 0,
        "slot": "0",
        "type": "t_uint256"
      },
      {
        "astId": 1150,
        "contract": "contracts/stargate/WidgetSwap.sol:WidgetSwap",
        "label": "tokenApproved",
        "offset": 0,
        "slot": "1",
        "type": "t_mapping(t_address,t_bool)"
      }
    ],
    "types": {
      "t_address": {
        "encoding": "inplace",
        "label": "address",
        "numberOfBytes": "20"
      },
      "t_bool": {
        "encoding": "inplace",
        "label": "bool",
        "numberOfBytes": "1"
      },
      "t_mapping(t_address,t_bool)": {
        "encoding": "mapping",
        "key": "t_address",
        "label": "mapping(address => bool)",
        "numberOfBytes": "32",
        "value": "t_bool"
      },
      "t_uint256": {
        "encoding": "inplace",
        "label": "uint256",
        "numberOfBytes": "32"
      }
    }
  }
}